:03000000020F0DDF
:0C0F0D00787FE4F6D8FD75813102080001
:100E94007FBFDFEFC0F9A4B0999282F8809888836D
:100EA400C6A1868E928CF7000000000000000000AE
:100EB40000000000000000FFFFFFFF86AFAFA3AFFC
:040EC400FFFFFFFF2E
:10080000E4F508F509780A7C00FD7BFF7A0E79ABE8
:10081000FE7F08120D06E4F514F515751617751709
:1008200070F51CF51DF51EF51FF520F521F522F5D7
:100830002378267C00FD7BFF7A0E79B3FE7F0812B9
:100840000D06C2B075A0FFE509640145087022E5F8
:100850001D451C701CE50925E0240AF8E6FE08E6A3
:100860002498F582740E3EF583E4936480F58080CD
:1008700018E50925E0240AF8E6FE08E62498F58242
:10088000740E3EF583E493F58074942509F5827423
:100890000E3508F583E493F5A0E5A0540FFF7E0024
:1008A000E51745166008E517151770021516EF6471
:1008B0000F4E7003020955E51745166003020955EE
:1008C000751617751770EF64074E7013E509AE08BB
:1008D0007802C333CE33CED8F9F5138E128049EFA8
:1008E000640B4E7011E509AE087802C333CE33CEE7
:1008F000D8F92401802CEF640D4E7011E509AE0883
:100900007802C333CE33CED8F924028015EF640EBB
:100910004E7015E509AE087802C333CE33CED8F950
:100920002403F513E43EF512C3E513940AE51264BB
:10093000809480501A852A2C852B2D85282A85297C
:100940002B8526288527298512268513278006854D
:100950001224851325E52545247003020A19E5258F
:10096000640A45247005F51E751F01E525640B45D5
:10097000247004F51EF51FE525640C4524701CF554
:100980001EF51FF522F523F520F521F50AF50BF5E7
:100990000CF50DF50EF50FF510F511E525640F4575
:1009A000247009F51EF51FF520752101E525640E5B
:1009B00045247060120E42AE2AAF2B7C007D64127B
:1009C0000D2CAA06AB07AE2CAF2D7C037DE8120DD3
:1009D0002CEF2BFBEE3AFAAE28AF297C007D0A12F1
:1009E0000D2CEF2BFFEE3AFEE5272FF51BE5263EFB
:1009F000F51AC3E51B94DCE51A648094855006E57E
:100A00002145207005120DC9800AE4F520F521F575
:100A100022752301E4F524F525E5236401452260D0
:100A200003020B34E51564A07004E514640F600341
:100A3000020B34120EF230B1FD30B117C3E5199438
:100A4000B8E5186480948B500A0519E51970EA0519
:100A50001880E6AE1AAF1B7C007D09120D2C0D121A
:100A60000D3EAB07AA06AE1AAF1B7C007D0B120D24
:100A70002C1D120D3EC3E5199BEA6480F8E518644D
:100A800080984030D3E5199FEE6480F8E5186480C3
:100A9000985021751000751111750E00750F0A75AB
:100AA0000C00750D10750A00750B10751C00751D76
:100AB00001020B34AE18AF197C037DE8120D3E8E97
:100AC000108F11AE18AF197C037DE8120D3E7E0029
:100AD0007F64CFCDCFCECCCE120D3E8E0E8F0FAE1B
:100AE00018AF197C007D64120D3E7E007F0ACFCDC9
:100AF000CFCECCCE120D3E8E0C8F0DAE18AF197C22
:100B0000007D0A120D3E8C0A8D0BE4F51CF51DC309
:100B1000E51994B8E5186480948B40187510007539
:100B20001112750E00750F12750C00750D12750AF5
:100B300000750B12E521640145207018852C108585
:100B40002D11852A0E852B0F85280C85290D8526CC
:100B50000A85270BC3E51594A0E5146480948F5093
:100B6000080515E51570020514E51F6401451E60B2
:100B700003020C1EE51564A07004E514640F600305
:100B8000020C1E120EF230B1FD30B117C3E51994FC
:100B9000B8E5186480948B500A0519E51970EA05C8
:100BA0001880E6AE18AF197C037DE8120D3E8E105A
:100BB0008F11AE18AF197C037DE8120D3E7E007FC9
:100BC00064CFCDCFCECCCE120D3E8E0E8F0FAE1891
:100BD000AF197C007D64120D3E7E007F0ACFCDCF21
:100BE000CECCCE120D3E8E0C8F0DAE18AF197C0000
:100BF0007D0A120D3E8C0A8D0BC3E51994B8E518D9
:100C00006480948B4018751000751112750E007574
:100C10000F12750C00750D12750A00750B1205097F
:100C2000E50970020508640445086003020844F5FC
:060C300008F5090208446A
:080EF200F514F515F518F519CA
:100EFA00D2B0E4FFFE0FBF00010EEF647D4E70F525
:020F0A00C2B073
:010F0C0022C2
:100E4200752E00752F037494252FF582740E352E9E
:100E5200F583E493F5A07580FB120EC87580FD1230
:100E62000EC87580FE120EC87580DF120EC875801E
:100E7200EF120EC87580FF120EC875807F120EC861
:100E8200E52F152F7002152EC3E52E648094805035
:010E9200B5AA
:010E9300223C
:100DC900E4FFFEF52EF52F7D03FCF530F53175A016
:100DD900FFE52F2DFBE52E3CFA74BB2BF582740E33
:100DE9003AF583E493F58074942FF582740E3EF5F9
:100DF90083E493F5A00531E53170020530B4701232
:100E0900E530B4170D052FE52F7002052EE4F530F6
:100E1900F531E52F640A452E601E0FBF00010EEF64
:100E290064044E7002FEFFED1D70011CBCFF9FBDE6
:080E3900FF9C7C007D03809604
:010E4100228E
:040EC8007F967E0093
:100ECC00E4FDFCC3ED9FEE6480F8EC648098501553
:100EDC00E4FBFA0BBB00010AEB64284A70F50DBD6C
:050EEC0000010C80DE96
:010EF10022DE
:100C3600E709F608DFFA8046E709F208DFFA803EA0
:100C460088828C83E709F0A3DFFA8032E309F6088D
:100C5600DFFA8078E309F208DFFA807088828C83F5
:100C6600E309F0A3DFFA806489828A83E0A3F608A9
:100C7600DFFA805889828A83E0A3F208DFFA804C83
:100C860080D280FA80C680D4806980F2803380105A
:100C960080A680EA809A80A880DA80E280CA8033C3
:100CA60089828A83ECFAE493A3C8C582C8CCC5833B
:100CB600CCF0A3C8C582C8CCC583CCDFE9DEE7800B
:100CC6000D89828A83E493A3F608DFF9ECFAA9F08A
:100CD600EDFB2289828A83ECFAE0A3C8C582C8CCE0
:100CE600C583CCF0A3C8C582C8CCC583CCDFEADEF9
:100CF600E880DB89828A83E493A3F208DFF980CC5B
:100D060088F0EF60010E4E60C388F0ED2402B40453
:100D16000050B9F582EB2402B4040050AF232345FA
:060D26008223900C86738D
:100D2C00EF8DF0A4A8F0CF8CF0A428CE8DF0A42EDB
:020D3C00FE2295
:100D3E00C2D5EC30E709B2D5E4C39DFDE49CFCEED0
:100D4E0030E715B2D5E4C39FFFE49EFE120D74C3C7
:100D5E00E49DFDE49CFC8003120D7430D507C3E4C2
:060D6E009FFFE49EFE223F
:100D7400BC000BBE0029EF8DF084FFADF022E4CC63
:100D8400F875F008EF2FFFEE33FEEC33FCEE9DEC2C
:100D9400984005FCEE9DFE0FD5F0E9E4CEFD22ED72
:100DA400F8F5F0EE8420D21CFEADF075F008EF2FBC
:100DB400FFED33FD4007985006D5F0F222C398FDAD
:050DC4000FD5F0EA224A
:00000001FF
